:020000040800F2
:10000000E013002001010008590B00080B0B000849
:10001000550B00087D0800086F1400080000000060
:100020000000000000000000000000003D0C00087F
:100030008108000800000000E10B0008510D0008D5
:100040001B0100081B0100081B0100081B01000820
:100050001B0100081B010008850800081B0100089F
:100060001B0100081B0100081B0100081B01000800
:100070001B0100081B0100081B0100081B010008F0
:100080001B0100081B0100081B0100081B010008E0
:100090001B0100081B0100081B010008B50800082F
:1000A0001B0100081B0100081B0100081B010008C0
:1000B0001B01000831100008811000081B01000816
:1000C0001B0100081B0100081B0100081B010008A0
:1000D0001B010008A11300081B0100081B010008F8
:1000E0001B0100081B0100081B010008DFF80CD0F1
:1000F00000F0AAFA0048004751380008E013002039
:100100000648804706480047FEE7FEE7FEE7FEE7B1
:10011000FEE7FEE7FEE7FEE7FEE7FEE7910D0008DB
:10012000ED0000082DE9FE4F804681EA0300C00F74
:100130000C46009021F0004123F00045B8EB02008E
:10014000A94105D24046214690461C460B46024630
:1001500023F00040104347D0270DC7F30A00C3F334
:100160000A510290401A019040286BDAC3F3130041
:1001700040F4801B0098924620B10023D2EB030A82
:1001800063EB0B0B01985946C0F14002504600F05A
:10019000B7F906460D4650465946019A00F0CFF988
:1001A00010EB08006141002487EA115284EAE773EA
:1001B0001A4340D0009A62B3019A012A4FEA0752CB
:1001C00015DC001B61EB02014FF0004202EA07520E
:1001D000CDE90042001C41F5801132462B4600F06B
:1001E000CDF903B0BDE8F08F40462146F9E7001B8A
:1001F00061EB0201001C41F5801300185B412018DF
:10020000A2F5001747EB030140EAD570B6196D411E
:1002100011E06D084FEA360645EAC0754FEA07520D
:10022000001B61EB0201001C41F5801149084FEAF7
:1002300030000019514132462B4603B0BDE8F04F63
:1002400000F08FB90098012240000023D0EB020299
:1002500063EBE073009821464FEAE074B8EB0000CE
:1002600061EB0401E9E783F000435BE781F00041C3
:1002700058E72DE9FE4F81EA030404F0004421F021
:10028000004100944FF0000B23F0004350EA0104BA
:100290005ED052EA03045BD0C3F30A54C1F30A559B
:1002A0002C44A4F2F3340194A0FB0254C1F31301D3
:1002B00041F48011C3F3130343F4801301FB0244A0
:1002C00000FB034E840A970A44EA815447EA8357A5
:1002D000A4FB076802958D0A05FB07854FEA932C5E
:1002E00004FB0C542705029D4FEA065847EA1637CF
:1002F000B5EB08056EEB070C870E920E47EA8117E7
:1003000042EA8312A7FB0201B6EB0B0164EB000487
:100310002B0D43EA0C335E1844EB1C50DA46514671
:10032000E7FB0201C5F313044FEA0B3343EA14530E
:100330004FEA0432019C43EA0603A4F10C04029440
:10034000009CCDE900B400F019F903B0BDE8F08FCE
:1003500000200146F9E72DE9F04D81EA030404F09D
:10036000004B21F0004514464FF0000A23F00041F5
:1003700050EA050220D054EA01021DD0C5F30A5705
:100380000246C5F31303C1F31300C1F30A5640F448
:10039000801543F48013A7EB0608101BD64608F21D
:1003A000FD3873EB050002D308F1010801E0921853
:1003B0005B41B8F1000F03DA00200146BDE8F08D83
:1003C00000204FF48011064684460EE0171B73EBA5
:1003D000050705D3121B63EB050306434CEA010C2A
:1003E00049084FEA300092185B4150EA0107EDD10D
:1003F00052EA030012D082EA040083EA05010843AE
:1004000005D0101BAB4106D20122002306E00022DA
:100410004FF0004302E06FF0010253101AEB0600A8
:100420004CEB085110EB0A0041EB0B01BDE8F04D1D
:1004300000F097B80EB5C10F80EAE0700844CA0713
:10044000002140F233438DE80E000A460B4600F0CF
:1004500095F803B000BD0EB540F233410291002182
:10046000CDE900110A460B4600F088F803B000BD44
:1004700070B5C1F30A5201F000450024C1F3130125
:1004800040F2FF3341F480119A4201DA002070BD3E
:1004900040F233439A42A2F2334203DC524200F06C
:1004A0003EF800E090402C43F1D0404270BD000087
:1004B00030B5002904DB4FF00044404264EB0101F9
:1004C000002B04DB4FF00044524264EB03038B42E9
:1004D00008BF824230BD000030B5002904DB4FF078
:1004E0000044404264EB0101002B04DB4FF0004468
:1004F000524264EB0303994208BF904230BD0000B2
:10050000202A04DB203A00FA02F1002070479140D3
:10051000C2F1200320FA03F3194390407047202AC8
:1005200004DB203A21FA02F00021704721FA02F39D
:10053000D040C2F120029140084319467047202A5A
:1005400006DBCB17203A41FA02F043EAE07306E0FB
:1005500041FA02F3D040C2F120029140084319460B
:10056000704710B5002B08DA401C41F100019218C9
:100570005B411A4301D120F0010010BD2DE9F04D7F
:1005800092469B4611B1B1FA81F202E0B0FA80F2D4
:1005900020329046FFF7B4FF04460F4640EA0A00B7
:1005A00041EA0B0153465A46084313D0114653EA19
:1005B000010019D0C8F140025046FFF7B0FF0546D0
:1005C0000E46504659464246FFF79AFF084305D06B
:1005D000012004E020463946BDE8F08D00200543A7
:1005E00046EAE0762C4337430A986305E40AA0EB19
:1005F00008000022FD0A44EA47540A3002D50020D0
:100600000146E9E7010510196941DDE908450019CE
:100610006941BDE8F04DA4E770B521F00043034304
:100620000CD0C1F30A550024D5EB040564EB040398
:10063000D617AD1AB34102DB0020014670BD201869
:1006400041EB025170BD0000064C074D06E0E0682A
:1006500040F0010394E8070098471034AC42F6D309
:10066000FFF748FD483B0008683B000870B58D184F
:1006700010F8014B14F0030201D110F8012B2311E3
:1006800006D110F8013B03E010F8016B01F8016B93
:10069000521EF9D1ABB110F8012B04F00C048A1AE8
:1006A0000C2C03D0A2EB84129B1C08E010F8014B29
:1006B000A2EB0422F8E712F8014B01F8014B5B1E94
:1006C000F9D5A942D4D3002070BD21B1826842F08F
:1006D0000102826003E0826822F0010282607047BA
:1006E000014600208A6802F004020AB1012000E0FD
:1006F000002070470146C86C80B270470246002057
:1007000013680B400BB1012000E000207047014648
:1007100000208A6802F008020AB1012000E00020EF
:100720007047000030B502460020002350680F4C8F
:1007300020400D790C6844EA0524204350609068FD
:100740000B4C2040D1E902542C434D7944EA450436
:1007500020439060D06A20F470000C7C641EE4B2E8
:10076000234340EA0350D06230BD0000FFFEF0FF9B
:10077000FDF7F1FFF0B504460D4600200021092DDC
:1007800011DDE068A5F10A0606EB4607072606FA22
:1007900007F18843A5F10A0606EB460603FA06F1BF
:1007A0000843E0600CE0206905EB4507072606FAE0
:1007B00007F1884305EB450603FA06F1084320617B
:1007C000072A0FDA606B561E06EB86071F2606FA0D
:1007D00007F18843561E06EB860605FA06F1084324
:1007E000606322E00D2A0FDA206BD61F06EB860726
:1007F0001F2606FA07F18843D61F06EB860605FA80
:1008000006F10843206310E0E06AA2F10D0606EB52
:1008100086071F2606FA07F18843A2F10D0606EBAC
:10082000860605FA06F10843E062F0BD816841F0F2
:1008300008018160704721B1826842F4A0028260A1
:1008400003E0826822F4A00282607047816841F070
:10085000040181607047000030B10749096841F424
:100860000001054A116005E00349096821F400010F
:10087000014A1160704700000824014000BFFEE7F4
:100880007047000010B5012000F032F8012806D1B1
:100890000548016805480068054A1268904701202C
:1008A00000F020F810BD0000D00F0020CC0F002079
:1008B000D40F002010B5802000F01AF8012806D1CE
:1008C0000548016805480068054A1268904780207D
:1008D00000F008F810BD0000B40F0020B80F002091
:1008E000C80F00200149086070470000140401404F
:1008F000014600200022074B1B6803EA0102054B5A
:1009000014331B680B4013B10AB1012000E0002032
:100910007047000000040140002123498279002A29
:100920003AD00A46126803689A430B461A600A1DB9
:10093000126803689A430B1D1A60027911440A6811
:1009400003681A430A60184A0832126803689A4317
:10095000154B08331A601A1D126803689A43124B2C
:100960000C331A604279102A0ED11A1F12680368DC
:100970001A430D4B08331A601A1D126803681A4394
:10098000094B0C331A600DE00749427911440A689B
:1009900003681A430A6005E0027911440A68036893
:1009A0009A430A60704700000004014030B50022FD
:1009B0008B071C0F0F2303FA04F20B4B8C1053F818
:1009C00024309343084C8D1044F8253023468C1076
:1009D00053F824308C07240F00FA04F42343024C0C
:1009E0008D1044F8253030BD080001402DE9F0415C
:1009F000024600250026002000230024002791F84D
:100A000003C00CF00F0591F803C00CF0100CBCF102
:100A1000000F03D091F802C04CEA050591F800C020
:100A2000BCF1000F31D0146800202BE04FF0010C16
:100A30000CFA00F3B1F800C00CEA03069E4220D184
:100A400083004FF00F0C0CFA03F7BC4305FA03FCCC
:100A50004CEA040491F803C0BCF1280F06D14FF012
:100A6000010C0CFA00FCC2F814C00AE091F803C0B3
:100A7000BCF1480F05D14FF0010C0CFA00FCC2F894
:100A800010C0401C0828D1D31460B1F800C0BCF1DC
:100A9000FF0F34DD546800202EE000F1080C4FF009
:100AA000010808FA0CF3B1F800C00CEA03069E42F4
:100AB00021D183004FF00F0C0CFA03F7BC4305FA69
:100AC00003FC4CEA040491F803C0BCF1280F05D1E3
:100AD00000F1080C08FA0CF8C2F8148091F803C071
:100AE000BCF1480F07D100F1080C4FF0010808FADB
:100AF0000CF8C2F81080401C0828CED35460BDE822
:100B0000F081416170470161704700BFFEE700005E
:100B10004CF6CC40014908607047000000300040AE
:100B20004AF6AA20014908607047000000300040E2
:100B3000014948607047000000300040014988606A
:100B40007047000000300040014908607047000015
:100B50000030004000BFFEE77047000070B5002184
:100B600000230F22C47804B3154C246804F4E06415
:100B7000C4F5E064210AC1F10403CA40447804FAD0
:100B800003F184781440214309010E4C0678A155E5
:100B9000047804F01F050124AC4005786D11AD0008
:100BA00005F1E025C5F8004109E0047804F01F05CF
:100BB0000124AC40044D0678761145F8264070BDFE
:100BC0000CED00E000E400E080E100E002490143B8
:100BD000024A1160704700000000FA050CED00E0C9
:100BE0007047000001460020034A506820F440404E
:100BF00008435060704700000010024029B1064AC7
:100C0000D2690243044BDA6104E0034AD2698243A9
:100C1000014BDA61704700000010024029B1064A1A
:100C200092690243044B9A6104E0034A9269824349
:100C3000014B9A617047000000100240704710B5E8
:100C400000F002F810BD00000CB5002001900090EB
:100C50003348006840F480303149086000BF3048B4
:100C6000006800F4003000900198401C019000984A
:100C700018B90198B0F5A06FF1D12948006800F4C7
:100C8000003010B10120009001E000200090009899
:100C9000012843D12348006840F010002149086032
:100CA0000846006820F0030008600846006840F02D
:100CB000020008601A4840681949486008464068C0
:100CC00048600846406840F48060486008464068D4
:100CD00020F47C1048600846406840F4E810486002
:100CE0000846006840F08070086000BF0C4800684B
:100CF00000F000700028F9D00948406820F0030097
:100D0000074948600846406840F00200486000BF5C
:100D10000348406800F00C000828F9D10CBD000021
:100D20000010024000200240042808D14FF0E021CA
:100D3000096941F004014FF0E022116107E04FF032
:100D4000E021096921F004014FF0E02211617047B0
:100D50007047000010B504466FF00400FFF7E4FF91
:100D6000E11704EB5171C1F3C701074A1170104636
:100D7000007800EB4001C1EBC0104FF6FF7101EAB3
:100D8000C0000249088010BDD80F0020DA0F0020F3
:100D900010B51348006840F001001149086008468A
:100DA0004068104908400E494860084600680E49EE
:100DB00008400B4908600846006820F4802008605D
:100DC0000846406820F4FE0048604FF41F00886029
:100DD000FFF735FF4FF000600449086010BD0000C8
:100DE000001002400000FFF8FFFFF6FE08ED00E0F3
:100DF000F0B50C46154600220021068C4FF6FE7712
:100E00003E400684028B018C4FF60C7632407E1CED
:100E100006EA03162E433243104EB0420ED0104E57
:100E2000B0420BD0B0F1804F08D00E4EB04205D08A
:100E30000D4EB04202D00D4EB04206D14FF6FD76B7
:100E4000314044F00106314305E04FF6F57631407C
:100E500044F00106314302830184F0BD002C0140BF
:100E6000003401400004004000080040000C004035
:100E7000F0B50C461546002200210026078C4FF6DF
:100E8000EF7C07EA0C070784028B018C4FF6FF7793
:100E900007EA041640F6FF473A404FF6FF7707EAA5
:100EA00003373A434FF6FF7707EA05273A43114FD6
:100EB000B8420ED0104FB8420BD0B0F1804F08D0DE
:100EC0000E4FB84205D00E4FB84202D00D4FB84277
:100ED00006D14FF6DF77394046F01007394305E079
:100EE0004FF65F77394044F010073943028301849D
:100EF000F0BD0000002C014000340140000400401F
:100F000000080040000C0040F0B50C4615460022D9
:100F100000210026078C4FF6FF6C07EA0C070784B8
:100F2000828B018C4FF6FF7707EA04264FF60C7789
:100F30003A404FF6FF7707EA03172F433A43114F22
:100F4000B8420ED0104FB8420BD0B0F1804F08D04D
:100F50000E4FB84205D00E4FB84202D00D4FB842E6
:100F600006D14FF6FF57394046F48077394305E004
:100F70004FF2FF57394044F480773943828301842C
:100F8000F0BD0000002C014000340140000400408E
:100F900000080040000C0040F0B50C461546002249
:100FA00000210026078C4EF6FF7C07EA0C07078419
:100FB000828B018C4FF6FF7707EA043640F6FF4735
:100FC0003A404FF6FF7707EA05273A434FF6FF7797
:100FD00007EA03373A43114FB8420ED0104FB842D8
:100FE0000BD0B0F1804F08D00E4FB84205D00E4F55
:100FF000B84202D00D4FB84206D14DF6FF773940C6
:1010000046F48057394305E047F6FF57394044F42A
:101010008057394382830184F0BD0000002C0140D9
:10102000003401400004004000080040000C004073
:1010300038B501210B4800F06AF868B10A48006829
:1010400000900A4803680A4802680A4801680A488A
:1010500000680A4C2468A0470121024800F024F8E7
:1010600038BD000000040040BC0F0020B40F002079
:10107000C00F0020B00F0020B80F0020C40F0020C8
:1010800010B50321014800F00FF810BD0008004022
:1010900021B1028842F08002028004E002884FF60B
:1010A0007F731A4002807047CA430282704721B1A1
:1010B000028842F00102028004E002884FF6FE73CB
:1010C0001A4002807047F0B50C4615461E460021B6
:1010D000002200230189028B038C4FF6F8773940F8
:1010E00021434FF6FC473A4040F201173A434FF68E
:1010F000DD773B404FF6FF7707EA06172F433B4368
:10110000018102830384F0BD0146888C704730B5AD
:101110000246002000230024158A05EA0103958970
:1011200005EA010413B10CB1012000E0002030BD3C
:1011300070B505460C46244885420ED023488542AA
:101140000BD0B5F1804F08D02148854205D0214809
:10115000854202D02048854200D100E000BF2088AF
:1011600050B92389A28861882846FFF741FEE188AB
:10117000284600F096F825E0208804280AD1238923
:10118000A28861882846FFF773FEE188284600F0B0
:1011900091F817E0208808280AD12389A28861885D
:1011A0002846FFF7B1FEE188284600F090F809E0F4
:1011B0002389A28861882846FFF7EEFEE188284649
:1011C00000F08EF870BD0000002C0140003401409A
:1011D0000004004000080040000C00401AB1838960
:1011E0000B43838102E083898B4383817047000036
:1011F00070B5002400220023058C4FF6FE763540A2
:101200000584028C8388048B4FF68F752C40B51EA5
:101210002C400D882C43751E2A400D892A434D8889
:101220002A43144DA8420BD0134DA84208D0134DA9
:10123000A84205D0124DA84202D0124DA84213D1A7
:101240004FF6F7752A404D892A434FF6FB752A4021
:101250008D882A434FF6FF652B404FF6FF552B40F4
:101260008D892B43CD892B4383800483CD8885864C
:10127000028470BD002C0140003401400040014058
:1012800000440140004801400A460021018B4FF60E
:10129000F773194011430183704781867047818439
:1012A0007047028B4FF6F3731A400283028B0A4396
:1012B00002837047028B4FF2FF331A400283028B86
:1012C0004FF6FF7303EA01231A4302837047828BB0
:1012D0004FF6F3731A408283828B0A4382837047EE
:1012E000828B4FF2FF331A408283828B4FF6FF735B
:1012F00003EA01231A438283704700000022028818
:101300001D4B98420ED01D4B98420BD0B0F1804F30
:1013100008D01B4B984205D01A4B984202D01A4B6A
:10132000984204D14FF68F731A404B881A43174BDB
:10133000984207D0164B984204D04FF6FF431A400C
:10134000CB881A4302808B8883850B8803850A4BE0
:1013500098420BD0094B984208D00E4B984205D0CA
:101360000D4B984202D00D4B984201D10B7A038667
:101370000123838270470000002C014000340140AB
:101380000004004000080040000C00400010004035
:10139000001400400040014000440140004801406A
:1013A00010B540F225510C4800F02EF870B10A48F3
:1013B00000F054F8C4B22146074800F054F800BFCA
:1013C0004021054800F013F80128F9D140210248D6
:1013D00000F004F810BD00000038014001F4007274
:1013E000B2F5007F00D100BFCA43028070470246B9
:1013F0000020B1F5007F00D100BF13880B400BB176
:10140000012000E00020704770B502460024002350
:101410000025002040F66A16B14200D100BFC1F39A
:10142000421501F01F03012606FA03F3012D02D134
:101430009689334006E0022D02D1168A334001E03E
:10144000968A33400C12012606FA04F416883440BA
:1014500013B10CB1012000E0002070BD0146888866
:10146000C0F308007047C1F308028280704700BFD4
:10147000FEE7000070B504460D460E48006840B90E
:10148000042001F0E1FF2846A16A00F0F3FB60624E
:101490000EE00848006801280AD1022001F0D4FFBC
:1014A000284600F081FCA062284600F0ADFBE06217
:1014B00070BD00001C01214270B504460D460F208E
:1014C00001F0C2FF11480068F8B994F92000002823
:1014D0001BDB207A02280AD10020E060207294F8F9
:1014E0002000022811D1012084F820000DE094F89A
:1014F000200008B9012000E0002084F8200000202E
:10150000E0602072284601F01DFE70BD00012142FE
:101510002DE9F04104460D4616461F46DDF81880B9
:1015200094F92000002818DD207A012815DC207AA3
:10153000012806D178212846626A00F0DFF8E063CE
:1015400005E02846626AA16900F0D8F8E063A08F40
:1015500081B2284600F0B8F818E022480068012857
:1015600007D10020E063A08F81B2284600F0ACF8DC
:101570000CE0384600F048FBE062384600F014FC0E
:10158000A0623846A16A00F075FB6062204600F058
:10159000B5FC404600F0D9FC304601F0BFFB68B115
:1015A000207A01280ADC0020E060207294F82000F4
:1015B000022815D1012084F8200011E0E068B0F580
:1015C000967F04D3207A10B90120207208E0E068E9
:1015D000B0F5617F04D3207A012801D10220207266
:1015E000BDE8F0811C01214209B9012200E000227E
:1015F0001146034A12688A4201D0014A11607047BD
:101600009081214209B9012200E000221146034ADB
:1016100012688A4201D0014A1160704794812142C8
:1016200038B5044601210820FFF7F8FA3020ADF85C
:10163000000010208DF8030003208DF80200694699
:101640000448FFF7D3F930210248FFF75CFA20463F
:1016500038BD0000000C01402DE9F05F80460C46CB
:1016600015461E46DDE90CABDDE90A970C4804601F
:101670000C4805600C4806600C48C0F800900C4807
:1016800007600C48C0F800A00B48C0F800B000216B
:10169000404600F019F8384600F057FCBDE8F09FCE
:1016A000B80F0020B00F0020C00F0020B40F0020A2
:1016B000BC0F0020C40F0020C80F0020014A116099
:1016C00070470000A001214270B505460C46602C11
:1016D00001DD602000E020460446032C01DA04B15D
:1016E000032404EB84004FF6FF7202EA80010248F3
:1016F000FFF7D3FD70BD0000000400402DE9F04F5E
:101700008BB004468946924664209AFBF0F0A9EB20
:10171000000B5846FEF78EFE0746884600223E4BD9
:1017200038464146FEF7C4FE6CD23A464346D4E9F9
:1017300006B15846FEF7F6FCC4E906010022374B15
:10174000D4E906B15846FEF7C7FE03D2002033495C
:10175000C4E906010022324BD4E906B15846FEF72F
:10176000A7FE03D200212E48C4E90610D4E908B32D
:101770005A4638464146FEF776FDCDE90401D4E9E4
:1017800004B35A46FEF775FDCDE90801D4E906B366
:10179000D4E902015A46CDE90001FEF76AFDCDE920
:1017A00004013A464346D4E900B15846FEF761FDCC
:1017B000CDE90201DDE90423FEF7B4FCCDE9060121
:1017C000DDE90823FEF7AEFC05460E46C4E90878BD
:1017D0000022144B28463146FEF77EFE01D200253A
:1017E000104E0022104B28463146FEF761FE0BD208
:1017F0000022134628463146FEF75AFE04D0002543
:10180000094E01E00025074E28463146FEF730FE1E
:101810000BB0BDE8F08F000000407F400070A74093
:101820000070A7C000005840000008402DE9F047B4
:101830008CB0824614461D4614AE96E8C0030121C2
:101840000220FFF7DBF901210520FFF7E7F940202F
:10185000ADF80C0018208DF80F0003208DF80E0055
:1018600003A94F48FFF7C2F84E48406820F4406093
:101870004C49486040F2CF70ADF8280041F61F4057
:10188000ADF824000020ADF82A00ADF8260009A923
:101890004548FFF733FD6020ADF814000020ADF897
:1018A0001C000120ADF8160005A93F48FFF7A0FC79
:1018B00008213D48FFF7E8FC01213B48FFF7E8FB22
:1018C000012211463848FFF789FC01213648FFF70D
:1018D000EBFB1D208DF8100002208DF81100032075
:1018E0008DF8120001208DF8130004A8FFF736F9D7
:1018F00001212D48FFF7DBFB4FF48070ADF80C00A1
:1019000010208DF80F0003208DF80E0003A9244845
:10191000FFF76CF84FF480712148FFF7F2F8802050
:10192000ADF80C0004208DF80F0003208DF80E0098
:1019300003A91B48FFF75AF807210020FFF736F8E4
:1019400017208DF8100002208DF8110003208DF86B
:10195000120001208DF8130004A8FFF7FFF8802083
:10196000019000208DF8080010208DF8090001205A
:101970008DF80A0001A8FEF7CFFFCAE90045CAE9C1
:101980000267CAE904890021CAF81810CAF81C10B5
:10199000CAF82010CAF8241050460CB0BDE8F087F1
:1019A0000008014000000140000400402DE9F84F0C
:1019B00083460A220821584600F0AAF800900098B1
:1019C000FEF749FD06464FF06632104BFEF751FC1C
:1019D000804600220E4BFEF74CFC04460D460022CA
:1019E0000C4B20462946FEF777FD02D84FF0000A3F
:1019F00009E00022084B20462946FEF73AFC06463D
:101A0000FEF736FD82465046BDE8F88F66664A3FCF
:101A100000002A4000004840000059402DE9F84FDE
:101A200083460A220921584600F072F80090009877
:101A3000FEF711FD06464FF06632104BFEF719FC1B
:101A4000804600220E4BFEF714FC04460D46002291
:101A50000C4B20462946FEF73FFD02D84FF0000A06
:101A600009E00022084B20462946FEF702FC064604
:101A7000FEF7FEFC82465046BDE8F88F66664A3F98
:101A80000000184000003840000059402DE9F84F90
:101A900082460A221021504600F03AF80090009841
:101AA000FEF7D9FC06464FF06632124BFEF7E1FB1B
:101AB00004460D4622462B460F481049FEF7D3FB3D
:101AC00080460F4A0F4BFEF746FC064600220E4B9F
:101AD000FEF728FB04460D4600220C4B2046294603
:101AE000FEF7C7FB0646FEF7C3FC83465846BDE833
:101AF000F88F000066664A3FE17A14AE47E1F63F90
:101B000022FDF675E09C713F00003940000059400D
:101B10002DE9F04180460F46144600250723012297
:101B200039461048FEF726FE002613E001210D4835
:101B3000FEF781FE00BF02210A48FEF7DFFD002804
:101B4000F9D00848FEF7D6FD05440F2001F0A2FCAD
:101B5000701CC6B2A642E9DBB5FBF4F080B2BDE86A
:101B6000F08100000024014010B586B00446012138
:101B70004FF40270FFF752F84FF40040FFF732F8CD
:101B80000120FEF769FE0320ADF8140000208DF857
:101B9000170003208DF8160005A91948FEF726FF47
:101BA000002000908DF804008DF805004FF46020AF
:101BB00002900020039001208DF810006946114822
:101BC000FEF7B0FD01210F48FEF77FFD0D48FEF73F
:101BD0002DFE00BF0B48FEF79AFD0028FAD10948F8
:101BE000FEF734FE00BF0748FEF77AFD0028FAD161
:101BF00001210448FEF71FFE204606B010BD00007C
:101C0000000C0140002401402DE9F84F83460A22D0
:101C10000221584600F09CF800900098FEF71BFC4B
:101C200006464FF066320F4BFEF723FB804600223C
:101C30000D4BFEF790FB04460D4600220B4B204651
:101C40002946FEF749FC00D809E00022084B20464F
:101C50002946FEF70EFB0646FEF70AFC8246504672
:101C6000BDE8F88F66664A3F0000E03F000018407C
:101C7000000059402DE9F34F81B00E461422032194
:101C8000019800F065F800900098FEF7E4FB074625
:101C90004FF06632244BFEF7ECFA8246234A244B7F
:101CA000FEF759FB04460D460022224B20462946EA
:101CB000FEF751FB0746204A204BFEF74CFB04463B
:101CC0000D4600221E4B20462946FEF705FC0DD985
:101CD00000221C4B20462946FEF7EAFB06D942F6B5
:101CE000E060864202DA1848864202DC002425467B
:101CF0000CE0642096FBF0FA5046FEF79BFB07468B
:101D000022462B46FEF70EFA04460D4600220F4BE4
:101D100020462946FEF7ADFA0746FEF7A9FB8146A5
:101D20004846BDE8FE8F000066660A40FCA9F1D275
:101D30004D62104000006E40BA490C022B87963F5E
:101D400000308140000024C078ECFFFF00005940C3
:101D50002DE9F04180460F46144600250723012255
:101D600039461048FEF706FD002613E001210D4814
:101D7000FEF761FD00BF02210A48FEF7BFFC002804
:101D8000F9D00848FEF7B6FC05440F2001F082FBAD
:101D9000701CC6B2A642E9DBB5FBF4F080B2BDE828
:101DA000F0810000002801402DE9FF5F83460A22F0
:101DB00004215846FFF7CCFF8246CAF58050FEF753
:101DC0004AFB06460F465046FEF745FB1B4A1C4B96
:101DD000CDE90201FEF74DFA804632463B46FEF75A
:101DE000BAFA04460D462046294601F079FB002246
:101DF000144BCDE90001FEF7AEFA0646124A134B2A
:101E0000FEF790F902460B46CDE902010020104989
:101E1000FEF7A1FA80464FF066320E4BFEF723FA2A
:101E200004460D4600220C4B20462946FEF721FAB7
:101E30000646FEF71DFB04B0BDE8F09F15AE47E176
:101E40007A14DE3F00DCAE405396218E75716B3FF5
:101E50000000F03F661271400000594010B586B096
:101E60000446012140F20440FEF7D8FE4FF4004042
:101E7000FEF7B8FE0120FEF7EFFC1C20ADF81400C1
:101E800000208DF8170003208DF8160005A91948C9
:101E9000FEF7ACFD002000908DF804008DF80500E1
:101EA0004FF4602002900020039001208DF8100074
:101EB00069461148FEF736FC01210F48FEF705FC84
:101EC0000D48FEF7B3FC00BF0B48FEF720FC0028CE
:101ED000FAD10948FEF7BAFC00BF0748FEF700FC3C
:101EE0000028FAD101210448FEF7A5FC204606B0DF
:101EF00010BD000000080140002801400178491C85
:101F000001700178052907DB002101704168491C37
:101F10004160C168491CC160704700210172C16005
:101F2000016141614FF4967181610021C16180F8C6
:101F3000201041628162C16280F83010416380F8F4
:101F40003810C16301704160704710B50446FEF758
:101F5000E7FD10BD2DE9F04705460C464FF47A70B9
:101F600094FBF0F040F2712100FB01F94846FEF7C6
:101F700061FA0746884638464146FEF779FA86B246
:101F800045F25550FEF7E0FD0420FEF7D1FD304646
:101F9000FEF7D4FDFEF7C4FDFEF7BAFD2846BDE806
:101FA000F08770B5064600241DE004F1B400C1B20C
:101FB000304600F05FF91021304600F05BF9002157
:101FC000304600F057F9002509E00021304600F0C6
:101FD000F3FA0021304600F0EFFA681C85B2802D3C
:101FE000F3DB601C84B20C2CDFDB70BD2DE9F04705
:101FF0008146884615461F46DDF820A0781B801FC5
:1020000000FB0AF0642190FBF1F6002E01DA0020BB
:1020100000E03046064608F1010000F00F00B43041
:10202000C1B2484600F026F9102040EA2511484682
:1020300000F020F905F00F01484600F01BF93F21A0
:10204000484600F0B9FA3F21484600F0B5FA702141
:10205000484600F0B1FA7021484600F0ADFA602120
:10206000484600F0A9FA6021484600F0A5FA00248D
:1020700009E04F21484600F09FFA4F21484600F002
:102080009BFA601C84B2B442F3DB002409E04021D7
:10209000484600F091FA4021484600F08DFA601C55
:1020A00084B2781B801F801BA042F0DC6021484670
:1020B00000F082FA6021484600F07EFA702148461E
:1020C00000F07AFA7021484600F076FA3F2148463F
:1020D00000F072FA3F21484600F06EFA08F00F0057
:1020E000B430C1B2484600F0C5F8102040EA2511CE
:1020F000484600F0BFF805F00F01484600F0BAF876
:10210000F921484600F058FAF921484600F054FAFF
:102110001D21484600F050FA1D21484600F04CFAB7
:102120000D21484600F048FA0D21484600F044FAD7
:10213000002409E0E521484600F03EFAE521484642
:1021400000F03AFA601C84B2B442F3DB002409E0E8
:102150000521484600F030FA0521484600F02CFAE7
:10216000601C84B2781B801F801BA042F0DC0D2114
:10217000484600F021FA0D21484600F01DFA1D21C5
:10218000484600F019FA1D21484600F015FAF921D9
:10219000484600F011FAF921484600F00DFABDE872
:1021A000F08700000146024A1268D0B27047000072
:1021B000BC812142014A116070470000BC8121426C
:1021C0002DE9F04180460F4615461E4607F00F00E8
:1021D000B430C1B2404600F04DF8102040EA25115D
:1021E000404600F047F805F00F01404600F042F885
:1021F00010240FE01E4800EB4610015D404600F041
:10220000DBF91B4800EB4610015D404600F0D4F9B5
:10221000601C84B2202CEDDB142001F03BF9781C0B
:1022200000F00F00B430C1B2404600F023F8102097
:1022300040EA2511404600F01DF805F00F01404628
:1022400000F018F800240FE0094800EB4610015D8B
:10225000404600F0B1F9064800EB4610015D4046EB
:1022600000F0AAF9601C84B2102CEDDBBDE8F0810F
:10227000F00D002070B506460C4600201949086094
:102280001949C1F8B0010120164908310860164902
:10229000C1F8B8010A2001F0FDF8002516E0C4F3EA
:1022A000C01010490C3108600A2001F0F3F800203A
:1022B0000D49C1F8B4010A2001F0ECF801200949E8
:1022C000083108606006040E681CC5B2082DE6DB04
:1022D0000120044908600449C1F8B8010A2001F04E
:1022E000D9F870BDAC812142008021422DE9F04730
:1022F0008146884616461F4600242FE008EB04005E
:1023000000F00F00B430C1B24846FFF7B3FF102011
:1023100040EA26114846FFF7ADFF06F00F01484698
:10232000FFF7A8FF3020A0EB041085B20FE00D48A6
:1023300000EB8710415D484600F03EF9094800EB8C
:102340008710415D484600F037F9681C85B240208F
:10235000A0EB0410A842EADC601C84B2042CCDDBA4
:10236000BDE8F087B008002010B5044600200649FB
:102370000860642001F068F801200449C1F8A80150
:10238000642001F061F810BDA88121420080214243
:102390002DE9F04180460F4616461D46A5F1200066
:1023A000C5B207F00F00B430C1B24046FFF762FF7C
:1023B000102040EA26114046FFF75CFF06F00F01AF
:1023C0004046FFF757FF08240FE01F4800EB0510B9
:1023D000015D404600F0F0F81B4800EB0510015D80
:1023E000404600F0E9F8601C84B2102CEDDB1420AC
:1023F00001F050F8781C00F00F00B430C1B2404634
:10240000FFF738FF102040EA26114046FFF732FF61
:1024100006F00F014046FFF72DFF00240FE00A48A9
:1024200000EB0510015D404600F0C6F8064800EBE1
:102430000510015D404600F0BFF8601C84B2082C16
:10244000EDDBBDE8F0810000000000202DE9F04741
:102450008146884616461F4600242FE008EB0400FC
:1024600000F00F00B430C1B24846FFF703FF102060
:1024700040EA26114846FFF7FDFE06F00F014846E8
:10248000FFF7F8FE6020A0EB441085B20FE00D4886
:1024900000EBC710415D484600F08EF8094800EB9C
:1024A000C710415D484600F087F8681C85B280205F
:1024B000A0EB4410A842EADC601C84B2042CCDDB03
:1024C000BDE8F087F00C002010B50446E22120465C
:1024D000FFF7D0FE322000F0B7FF2C212046FFF797
:1024E000C9FE322000F0D6FF2E212046FFF7C2FEA3
:1024F000322000F0CFFF2F212046FFF7BBFE322015
:1025000000F0C8FFAE212046FFF7B4FE3821204678
:10251000FFF7B0FEB8212046FFF7ACFEA021204611
:10252000FFF7A8FEC8212046FFF7A4FE442120465D
:10253000FFF7A0FE00212046FFF79CFE4021204629
:10254000FFF798FE00212046FFF794FEAB212046BE
:10255000FFF790FE67212046FFF78CFE27212046DB
:10256000FFF788FE81212046FFF784FE26212046C2
:10257000FFF780FE56212046FFF77CFEF321204620
:10258000FFF778FE04212046FFF774FEA6212046BF
:10259000FFF770FEC0212046FFF76CFEA021204609
:1025A000FFF768FE93212046FFF764FEAF21204627
:1025B000FFF760FE10BD000070B506460C46002017
:1025C0001949086001201949C1F8B00116490831BC
:1025D00008601649C1F8B8010A2000F05BFF002529
:1025E00016E0C4F3C01010490C31086000200F49F8
:1025F000C1F8B4010A2000F04DFF01200A4908315A
:1026000008600A2000F046FF6006040E681CC5B290
:10261000082DE6DB0120044908600449C1F8B8012F
:102620000A2000F037FF70BDAC81214200802142BA
:102630002DE9F04107460C46154604F00F00B43072
:10264000C1B23846FFF716FE10213846FFF712FEDA
:1026500000213846FFF70EFE002609E029463846DD
:10266000FFF7AAFF29463846FFF7A6FF701C86B27F
:10267000802EF3DBBDE8F08138B504460121082047
:10268000FEF7CCFA4FF47C40ADF8000010208DF836
:10269000030003208DF8020069460F48FEF7A6F9F3
:1026A00001200E4908600E49C1F8B4010B490C31F4
:1026B000086001212046FFF77DFD2046FFF754FE0C
:1026C0002046FFF701FF2046FFF76BFC642000F077
:1026D000BBFE204638BD0000000C0140AC81214209
:1026E0000080214210B5044600212046FFF762FD1C
:1026F0002046FFF756FC10BD2DE9F04781460D46F8
:10270000164642F2107095FBF0F44FF47A7095FB88
:10271000F0F004EB8401A0EB4107642095FBF0F09E
:1027200004EBC40101EB0411A0EB810007EB87016E
:10273000A0EB41080A2095FBF0F004EB4401C1EB4B
:10274000C411A0EBC10007EBC70101EB0711A0EB1F
:10275000810008EB8801A0EB410A012E06D10D2370
:10276000002204214846FFF7C1FD17E0022E06D1E2
:102770001023002204214846FFF7B8FD0EE0701C2C
:1027800030B90F23002204214846FFF7AFFD05E0D2
:102790000E23002204214846FFF7A8FD002C06DD89
:1027A000E3B2132204214846FFF7A0FD05E00D2304
:1027B000132204214846FFF799FD3FB934B90D2390
:1027C000242204214846FFF791FD05E0FBB22422B4
:1027D00004214846FFF78AFD08F0FF033522042153
:1027E0004846FFF783FD0A23462204214846FFF7A7
:1027F0007DFD0AF0FF034F2204214846FFF776FDD6
:102800000023602204214846FFF720FEBDE8F08740
:102810002DE9F04782460E4617464FF47A7096FB34
:10282000F0F4642096FBF0F004EB8401A0EB41058A
:102830000A2096FBF0F004EBC40101EB0411A0EBBD
:10284000810005EB8501A0EB410804EB4400C0EBDF
:10285000C410A6EBC00005EBC50101EB0511A0EB10
:10286000810008EB8801A0EB41095046FFF79AFC74
:1028700018B901215046FFF79DFC00231A460A2192
:102880005046FFF79DFC002C08DD04F13000C3B278
:1028900010220A215046FFF77BFD05E0202310227D
:1028A0000A215046FFF774FD05F13000C3B219222A
:1028B0000A215046FFF76CFD2E2322220A215046A2
:1028C000FFF766FD08F13000C3B227220A21504607
:1028D000FFF75EFD09F13000C3B230220A215046F5
:1028E000FFF756FD562339220A215046FFF750FDC7
:1028F0007C2341220A215046FFF74AFD4FF47A70AB
:1029000097FBF0F4642097FBF0F004EB8401A0EB5C
:1029100041050A2097FBF0F004EBC40101EB041120
:10292000A0EB810005EB8501A0EB410804EB44001E
:10293000C0EBC410A7EBC00005EBC50101EB05110E
:10294000A0EB810008EB8801A0EB4109012347229D
:102950000A215046FFF734FC05F13000C3B258227B
:102960000A215046FFF714FD2E2361220A2150460A
:10297000FFF70EFD08F13000C3B266220A2150466F
:10298000FFF706FD09F13000C3B26F220A2150465D
:10299000FFF7FEFC562378220A215046FFF7F8FC89
:1029A000BDE8F0872DE9F74F84B00C469246062328
:1029B000002211460498FFF703FC2046FDF73AFD7C
:1029C00007460022374BFDF7C6FC0546FDF750FDD4
:1029D000C0B202903D231022002100900498FFF71E
:1029E00005FB4FF47A7094FBF0F9642094FBF0F04F
:1029F00009EB8901A0EB410B0A2094FBF0F009EBF5
:102A0000C90101EB0911A0EB81000BEB8B01A0EBDD
:102A100041000390B9F1000F08DD09F13000C3B2A5
:102A2000412200210498FFF7B3FC05E02023412256
:102A300000210498FFF7ACFC0BF13000C3B24A222E
:102A400000210498FFF7A4FC2E23532200210498B0
:102A5000FFF79EFC03983030C3B25822002104983F
:102A6000FFF796FC5723612200210498FFF790FCA2
:102A70007C23692200210498FFF78AFCBAF1000F39
:102A800006D109236F2200210498FFF799FB05E086
:102A90000A236F2200210498FFF792FB07B0BDE8DC
:102AA000F08F0000000052402DE9FE4F05460C4615
:102AB00091460523002202212846FFF781FB20468C
:102AC000FDF7B8FC07460022344BFDF744FCCDE986
:102AD0000001FDF7CDFC00F0FF0B3D231022022189
:102AE0002846CDF800B0FFF781FA642094FBF0F699
:102AF0000A2094FBF0F006EB8601A0EB410A06EBFE
:102B0000C60000EB0610A4EB80000AEB8A01A0EBE4
:102B10004100029006F13000C3B241220221284652
:102B2000FFF736FC2E234A2202212846FFF730FC0D
:102B30000AF13000C3B24F2202212846FFF728FCD9
:102B400002983030C3B2582202212846FFF720FCF9
:102B50004123612202212846FFF71AFC7C236922C7
:102B600002212846FFF714FCB9F1000F05D0687860
:102B700008B9012000E000206870687830B10723B0
:102B80006F2202212846FFF71BFB05E008236F2276
:102B900002212846FFF714FBBDE8FE8F0000084025
:102BA0002DE9F04780460D461646642095FBF0F46B
:102BB0000A2095FBF0F004EB8401A0EB410704EB45
:102BC000C40000EB0410A5EB800007EB8701A0EB2D
:102BD00041090223002208214046FFF7F1FA202391
:102BE000112208214046FFF7D3FB002C08DD04F139
:102BF0003000C3B2152208214046FFF7C9FB05E0AB
:102C00002023152208214046FFF7C2FB3FB934B903
:102C100020231E2208214046FFF7BAFB07E007F1F8
:102C20003000C3B21E2208214046FFF7B1FB09F174
:102C30003000C3B2272208214046FFF7A9FB032337
:102C4000302208214046FFF7BBFA7C2341220821AD
:102C50004046FFF79DFB002E00DA00264FF47A7005
:102C600096FBF0F4642096FBF0F004EB8401A0EBFB
:102C700041070423472208214046FFF7A1FA2023F9
:102C8000582208214046FFF783FB002C08DD04F1A1
:102C90003000C3B25C2208214046FFF779FB05E013
:102CA00020235C2208214046FFF772FB07F1300029
:102CB000C3B2652208214046FFF76AFB03236E2258
:102CC00008214046FFF77CFABDE8F08710B50446BE
:102CD0002046FFF7D1FC04460120607001220A2142
:102CE0002046FFF7A5FC012208212046FFF7A0FCA3
:102CF000012204212046FFF79BFC012202212046ED
:102D0000FFF796FC012200212046FFF791FC0121EC
:102D10002046FFF74FFA204610BD00000146044A46
:102D20001268D0B208B9012200E0002210467047B4
:102D3000040121422DE9FF4107460C4615461E4677
:102D400001210420FDF76AFF0120ADF800000420F6
:102D50008DF8030003208DF8020069461F48FDF737
:102D600045FE0120ADF8000004208DF8030003208B
:102D70008DF8020069461948FDF738FE0121084622
:102D8000FDF74CFF00210846FDF710FE06208DF8E8
:102D90000C0002208DF80D0000208DF80E0001209F
:102DA0008DF80F0003A8FDF7D9FE01200190002047
:102DB0008DF808000C208DF8090001208DF80A001C
:102DC00001A8FDF7A9FD064804600648056006480D
:102DD0000660384604B0BDE8F081000000080140FC
:102DE000CC0F0020D00F0020D40F00202DE9F0419F
:102DF00007460D461646002405E0A1B2384600F00D
:102E000006F82855641CB442F7DBBDE8F0812DE9D3
:102E1000F04106460C460027304600F0FBF92546F7
:102E2000E01704EB10600012A02202EB4000C1B2D8
:102E3000304600F0C7F8304600F022F8E01704EB07
:102E400010600012A4EB0020C1B2304600F0BAF8C6
:102E5000304600F015F8304600F0DCF9A12130468C
:102E600000F0B0F8304600F00BF80021304600F0DA
:102E700075F80746304600F0AFF93846BDE8F081F6
:102E800070B50546002401200F49086000F002FBE0
:102E9000284600F0E7F801200C49C1F88C0100F049
:102EA000F9FA08E0601CC4B2FA2C04DD284600F0F0
:102EB00093F9012070BD0448803800680028F1D1E2
:102EC0000349086000BFF5E7BC01214200802142B0
:102ED0008C8121422DE9F04107460D46164600241B
:102EE00005E02A5DA1B2384600F005F8641CB44242
:102EF000F7DBBDE8F0812DE9F04107460C461646A8
:102F0000384600F087F92546E01704EB1060001200
:102F1000A02202EB4000C1B2384600F053F8384618
:102F2000FFF7AEFFE01704EB10600012A4EB0020E7
:102F3000C1B2384600F046F83846FFF7A1FF3146E7
:102F4000384600F03FF83846FFF79AFF384600F061
:102F500043F9142000F078FABDE8F0812DE9F04142
:102F600007460D460024384600F07CF8002615E0A0
:102F7000002011490860022000F08CFA01200F495E
:102F8000C1F88C016006040E0D48006808B1601C91
:102F9000C4B2012000F07EFA701CC6B2082EE7DB36
:102FA0001DB9384600F0F8F802E0384600F06AF83B
:102FB0002046BDE8F08100008C8121420080214242
:102FC0003C01214270B506460C46304600F07AF8C6
:102FD00000201349086000251EE004F0800000284E
:102FE00003DD01200F49086002E000200D49086060
:102FF0006006040E022000F04DFA01200849086026
:10300000022000F047FA00200749C1F88C01022095
:1030100000F040FA681CC5B2082DDEDB70BD000070
:103020008C812142BC0121420080214270B50546BD
:10303000FF212846FFF7EBFE0446362C01D1012084
:1030400070BD3622FF212846FFF755FFFF21284695
:10305000FFF7DDFE0446362C01D10120F0E7002009
:10306000EEE7000038B504464FF40040ADF800002C
:1030700048208DF8030069460148FDF7B7FC38BDCC
:103080000008014010B5044600200B4908602046A6
:1030900000F018F800200949C1F8BC01022000F036
:1030A000F9F9012004490860052000F0F3F9002037
:1030B0000349C1F88C0110BD8C81214200002142DE
:1030C0000080214238B504464FF40040ADF80000BE
:1030D00003208DF8020010208DF803006946024895
:1030E000FDF784FC38BD00000008014070B50446BF
:1030F0002046FFF79BFF01281ED10222A11D20467A
:10310000FFF774FEE088FDF7A6F9054600220B4B99
:10311000FDF7E2F90CD2E088FDF79DF905460022A3
:10312000074BFDF7C5F903D2E0882168886103E009
:103130004FF496702168886170BD0000000059400E
:1031400000407F4070B5044600252068008BA080B9
:10315000002008E0211D0A5CA11D095C8A4201D003
:10316000012502E0401C0228F4DB2046FFF75EFF49
:1031700001280FD1012D0DD10222211D2046FFF77C
:10318000A9FE002004E0211D0A5CA11D0A54401C78
:103190000228F8DB70BD000010B5044600200B4982
:1031A00008602046FFF78EFF01200949C1F8BC01E5
:1031B000022000F06FF9012004490860052000F0AA
:1031C00069F900200349C1F88C0110BD8C812142AE
:1031D000000021420080214210B504462046FFF73E
:1031E00071FF0020094908600949C1F8BC010120AC
:1031F00006490860062000F04DF901200449C1F895
:10320000BC01062000F046F910BD00008C8121426F
:103210000000214210B504462046FFF753FF01206D
:10322000094908600949C1F88C01052000F032F90C
:10323000002005490860062000F02CF90020034911
:10324000C1F88C0110BD0000BC0121420080214268
:1032500038B504460D4601210C20FDF7DFFC4FF484
:103260000040ADF8000010208DF8030003208DF819
:10327000020069460D48FDF7B9FB0820ADF80000D3
:1032800010208DF8030003208DF8020069460848DD
:10329000FDF7ACFB0120074908600749086025607D
:1032A0000A2000F0D1F8204638BD00000008014097
:1032B000000C0140BC0121428C81214270B50646C0
:1032C0000548FDF721FF0546C01705EB90708410F7
:1032D000A4F50054204670BD0008004070B50546B6
:1032E0000C4614F5005F02DDB4F5005F01DB002041
:1032F00070BD04F50054A400A1B20248FDF7CFFF51
:103300000120F5E70008004010B586B00446012111
:103310000420FDF773FC4FF6FF70ADF8100000209D
:10332000ADF80C00ADF81200ADF80E0003A910487E
:10333000FDF7E4FF1020ADF8080069460C48FDF7E2
:10334000F7FE012211460A48FDF748FF02231A46FC
:1033500003210748FDF7B7FE00212046FFF7BEFF17
:1033600001210348FDF7A3FE204606B010BD000072
:10337000000800402DE9F0414F1E00EBC701044654
:10338000D1E9000115461E4637F006020DD02A4647
:103390003346FCF76EFF7F1E04EBC703D3E900231F
:1033A000FCF7C0FE37F00602F1D1022F25D0042F22
:1033B00013D0062F18BFBDE8F0812A463346FCF72C
:1033C00058FFD4E90A23FCF7ADFE2A463346FCF742
:1033D00050FFD4E90823FCF7A5FE2A463346FCF744
:1033E00048FFD4E90623FCF79DFE2A463346FCF746
:1033F00040FFD4E90423FCF795FE2A463346FCF748
:1034000038FFD4E90223FCF78DFE2A463346FCF749
:1034100030FFD4E90023BDE8F041FCF783BE02E0B1
:1034200008C8121F08C1002AFAD17047704700204F
:1034300001E001C1121F002AFBD170470149086059
:1034400070470000DC0F00200146114A12884A43F1
:103450004FF0E0235A6100229A611A46126942F045
:1034600001021A6100BF4FF0E022106900F0010272
:103470001AB100F48032002AF5D04FF0E022126930
:1034800022F001024FF0E0231A6100229A61704796
:10349000DA0F00200146114A12784A434FF0E02328
:1034A0005A6100229A611A46126942F001021A61B9
:1034B00000BF4FF0E022106900F001021AB100F4E1
:1034C0008032002AF5D04FF0E022126922F001028A
:1034D0004FF0E0231A6100229A617047D80F002054
:1034E0002DE9F04DCC4A002490B0914205DA21F04C
:1034F0000043934201D807D130B110B04FF0010220
:10350000BDE8F04DFDF788B8B1F5801F21DA53EA28
:1035100000020DD0002917DA0120FFF78FFF10B04D
:103520000022BDE8F04D134610461146FCF713BFCC
:103530000220FFF783FF10B00022BDE8F04D1346D4
:103540001046B649FCF707BF6FF035043622FDF789
:1035500063F804EB2152C1F31308B149A2F2FF331F
:10356000414401F4801282F07F6103EB225281F02A
:103570004051009241EA08010022AA4BFCF773FE79
:10358000044608F10200A84EC0F313000D467E4425
:10359000032867D2D6E900232046FCF789FF1ED115
:1035A0000098002802BFD6E9000110B0BDE8F08DF8
:1035B000FCF740FF04460D469C4A9D4BFCF759FE24
:1035C00007460E469B4A9C4B20462946FCF751FE77
:1035D00010B03A463346BDE8F04DFCF7A3BD4FF0BE
:1035E0005532964B20462946FCF743FE0022944B69
:1035F000FCF73CFE07460E4622462B46104619466F
:10360000FCF737FE3A463346FCF733FE0646009891
:103610000F46F0B1FCF70EFF80468A46834A844B82
:10362000FCF727FE32463B46FCF720FE22462B469F
:10363000FCF719FE05460C467E4A7F4B4046514634
:10364000FCF717FE10B02A462346BDE8F04DFCF704
:103650000ABE0B4610B0324620462946BDE8F04D62
:10366000FCF701BE00224FF080432046FCF75AFDD4
:1036700002460B4620462946FCF76DFE06460F46DD
:103680000098FCF7D7FECDE9040132463B461046D0
:103690001946FCF7EEFD0C906A48099108EB000210
:1036A00001920C9A0B461046FCF7E3FD8246024657
:1036B00065488B46C8F151080B4608F5D728032109
:1036C0007844FFF757FE52465B46FCF7D2FD0A905E
:1036D0005E480D9152465B4604217844FFF74AFE4E
:1036E000099B0C9AFCF7C5FD019A0D9B42EA08085C
:1036F0000A9AFCF717FD83460891B8F1000F4EDDDA
:103700004FF0FF3220462946FCF786FF22462B4623
:10371000FCF7AFFD804600988A4660B3DDE90401FE
:10372000424A434BFCF7A5FD099100905A4640469A
:103730005146089BFCF7F6FC32463B46FCF799FDE8
:10374000099B009AFCF7EEFC42465346FCF78EFDBF
:1037500022462B46FCF787FD04460D46DDE90401B1
:10376000344A354BFCF785FD10B022462B46BDE8A8
:10377000F04DFCF778BD5A464046089BFCF7D2FC5A
:1037800032463B46FCF775FD42465346FCF76EFD5C
:1037900010B022462B46BDE8F04DFCF767BD0098FF
:1037A00040B3DDE90401214A214BFCF762FD82466A
:1037B00088465A4620462946089BFCF754FD324667
:1037C0003B46FCF756FD52464346FCF74CFD22466D
:1037D0002B46FCF748FD04460D46DDE90401154A79
:1037E000154BFCF746FD10B022462B46BDE8F04DC8
:1037F000FCF739BD0B465A4620462946FCF733FDF7
:1038000032463B46FCF735FD10B022462B46BDE85C
:10381000F04DFCF72BBD00000000F07F0000F0BF72
:10382000645F09000000F03FAE050000763C79358A
:10383000EF39EA3D0000E0FE422EE63F5555D53F08
:103840000000E03F86EBF9FF440400004204000062
:10385000AAB04FF0000A4820FDF77CFA4FF4A060B0
:10386000FDF7B4F919A8FEF758FB18A8FEF77CF984
:1038700017A8FEF7F3FA16A8FDF7D2FE15A8FEF773
:10388000FBFE14A8FFF722FA13A8FFF73DFD19A9C4
:1038900011A8FFF7DDFC8E4B11AA19A910A8FFF79C
:1038A00049FA11A8FFF722FC1F98FCF7C3FD8046D8
:1038B0000022884BFCF7D7FC06460022864BFCF71B
:1038C000D8FC0446FCF7D4FD8346594613A8FFF7FD
:1038D00005FD82498248CDE9021082498248834A27
:1038E000834BCDE9001006A8FDF7A0FF4FF47A71D5
:1038F00005A8FEF72FFB7F487F4905AA17ABCDE946
:103900000032CDE9021010AB06AA19A906A8FDF7EE
:10391000A3FE012106A8FDF7D1FE01208DF8940039
:10392000D4E00AF1010A28209AFBF0F100FB11A073
:1039300018B9012116A8FDF757FE50209AFBF0F1A7
:1039400000FB11A0002872D1002116A8FDF74CFE43
:1039500018A8FEF72BF81D9018A8FEF75FF81E9028
:1039600018A8FEF793F8209013A8FFF7A7FC80464D
:10397000FCF760FD06460022564BFCF7D3FB0446DD
:10398000FCF776FD1F901F98FCF754FD04460022BB
:103990005A4BFCF7A1FD06D24FF4FA701F90C821D4
:1039A00013A8FFF79BFC1F98FCF744FD0446002278
:1039B000534BFCF77DFD06D264201F906FF0C701CA
:1039C00013A8FFF78BFC9DF86C0002280AD114A8FD
:1039D000FEF788FE012116A8FDF714FE1E20FFF752
:1039E00033FD6EE0002116A8FDF70CFE14A8DDE9FA
:1039F0001D12FEF70DFF0520FFF726FD14A8DDE9D7
:103A00001F12FFF7CDF80520FFF71EFD3D49239853
:103A1000884204DD42F6E0612398884208DB9DF984
:103A20008400002817DBFF208DF8840013E04AE0B3
:103A30009DF98400401C18B900208DF884000AE02C
:103A40009DF98400002806DD9DF86C00012802D154
:103A500002208DF884009DF98400401C30B99DF946
:103A60008420002114A8FEF747FE05E09DF984207C
:103A700014A82299FEF740FE0520FFF7E5FC1D99EA
:103A8000289848432499484342F2107190FBF1F082
:103A90002690289924984843642190FBF1F49DF8DE
:103AA0009420214614A8FEF7FFFF0520FFF7CCFC69
:103AB0009DF89C2014A82699FEF774FF0520FFF7B7
:103AC000C3FC4FF0000A0120FFF7BEFC29E700000D
:103AD000B914000800C072400000F03F62A1D63463
:103AE000EFB80FC0C8EA56CF49EFCF3F4D158C4A0B
:103AF000EA040340751400081115000800407F40D7
:103B0000000059407DECFFFF04FA97999999D93F3D
:103B1000AF788E1DC571CC3F9FC678D0099AC33F40
:103B2000935555555555E53F599322942449D23F15
:103B3000DE03CB966446C73F44523EDF12F1C23FDC
:103B40000000000000000000683B000800000020AA
:103B5000E00F00006C0600080C440008E00F002095
:103B6000000400002E340008520001520101110B24
:103B7000521F1332CC061004083040036127100690
:103B8000000002031E031006000020FC2003101892
:103B900000000E11113F100C0000180404FF84787F
:103BA000000F100F0106183E10058C30C078101160
:103BB0001113110E0FD00D7884C43498E4840800DA
:103BC00048700001300407182060300BE018040230
:103BD0000000402018076820040418E06F400E021F
:103BE000010F01020200404080F080408831201324
:103BF00080801173808046C3090E5632800171B7F0
:103C00006004010D0DE0100400031CB832065F11C2
:103C10007E140E08101008070001F109050509F1CE
:103C20000027080801100C01010505FD050501002C
:103C30000E1001120F401009152545850D01000CCD
:103C40001011D2100801190585854539301004017D
:103C5000020C3110190161A12525FD2525001F1138
:103C600011111010000199050505897101601004FA
:103C70001111092013F189111005F90100183F27CE
:103C8000161870277D8170430E11504339455043FB
:103C90000F10902006814945458990400400030398
:103CA000D2570C0CAB653851DA100502040810F03D
:103CB0002406402010080431210115483101130069
:103CC00000152602D611251720402F330E12C021D1
:103CD0005026EC0C14050C131417003408E018E4FB
:103CE00014F414E81E2560200A053DC54141E51D78
:103CF0000510D015C1100804FC0404048870302598
:103D000010261CAD22047843101FB031201308F098
:103D1000103006111117100830A004C40418103315
:103D200000C070313F314020044478404011A4105D
:103D3000091F1004FC848080842522105221B021A8
:103D40005225C9411116033122FE0E20071F11030F
:103D500014181060400580641C04405200A0130435
:103D60000C8010041F001F54200604FC807C804F30
:103D700040041F0C03601204E436FCEF21B063F032
:103D800008B045E0318093800020300614140C0AFE
:103D9000F2C0250131C03404300C04B021C1240725
:103DA0001C0484844438CF114242188231A041D08F
:103DB0002300F8901410F800101E110000131C10BE
:103DC0000101E11D71F112109F1200A0100701C145
:103DD0007D817DC110201318160101161810040CE6
:103DE00034C0C0340C04101C132F7150218F2110CB
:103DF0001406041C6484045019DA367FD834040095
:103E000000FEE85B201C1F20040080600B15F83EBC
:103E10007FA803270202301DA903EC044040207351
:103E2000039DF003F11E5D25031405982424488F9B
:103E30001A08FB31103BFC880071211270104304FA
:103E4000884A3004090F00F02608035D460413F881
:103E5000240119509407010107090904D05D670482
:103E60004007D6292929C906601D760315804543D8
:103E70004404011919D161305112590111903131A5
:103E8000140604FC2460948F5DAF03793061D7255C
:103E9000F0210309860019F21F1C707F0369001CC2
:103EA0000600C07C807C1103093100480400003FFB
:103EB000012B807C015700FFD046FFCF4E3FA70566
:103EC0004F027C1C051E403605DF20401C051AC031
:103ED000266D3B053C04F0FE0F160530050107FE7C
:103EE000F05D53FFC02642FF4BA00B0103060C08F8
:103EF000080806030142C94BC3FFFF62A110113C31
:103F000020040C0F0F4369A93D9C045EC0BD05460B
:103F10001EF060060000C1FF3E20200430180C6F28
:103F2000318950040E0D0C014E0E0905328040629D
:103F3000C0C0430F0FAE43C17F3F3BC0C0943005AC
:103F4000030206FCD0100403070482A0060808043C
:103F50000603A282C0C260068060100C03B2100685
:103F6000302C2621200113FFFF0691C3730F0FC1D0
:103F700072C00141ECB200915FC0C3A105300401E1
:103F8000FFFC8052048072078041C255002405E086
:103F9000FC07819043C083DFB0047FFF8340159905
:103FA0003580620CC0C2C08055168404E01806A09B
:103FB000B3C0FCEC6524A5FF71B020053E7FF1C0C5
:103FC000BC1C0480417FD707240600F0FC0E023F92
:103FD0003404070E1E4015FE75409201BE69406F05
:103FE000FCFF8004380403FEF82E43070C2F3FE14A
:103FF0007F9A034004070708BE0333010001EC0564
:1040000060F0F060BD046805030302028F24050F11
:104010007FFFF04A280580E0FF7F0B53FCFF9219D9
:10402000952EFC1803800E81C1E17131111171E1EF
:10403000C181010142BD2A08DAFFC171101DA80724
:104040001D0106100531F1F1F1434E114008195CD4
:104050001D5E054F03032905480478F898525C0556
:1040600083FFFF7C31031C080E1C3870E0C080BA4F
:10407000074007010171F1B131012C0471F1C1D088
:1040800007299C313F5D80033AF0A730050183FF8B
:10409000FE3F1203361DDD082C06C0C0607F3F1DA9
:1040A000052004C1E1E17B7006113161E1C1C0412D
:1040B000276DDC086005070E38F0B21C050C3C7457
:1040C000E42A041204101D12075DE80511C311C291
:1040D00021C15162610141ECB191480403C3C3990C
:1040E0001515323F8042218072E18051C245002483
:1040F00006073FFFE183903FC3C1B003A005FEFF69
:10410000FFC14034040181E18053317140C203801A
:104110003B70F0C77C05071F78E0CE097E0385045D
:1041200041C011BD8DA00A45FF71B020057CFEFF86
:104130008F0C2C050183FEFE700A1C043F7F705B10
:10414000043405C0E0F0784015FE76614086818039
:1041500069406F3FFFF0042BC0FFB1213A1E30E3EE
:104160000818053060E7FFD11DB80726E1394A314C
:104170003F092FC418040101613C8F6101600B3CB1
:104180000407040355031D97093D59074C05C0401A
:10419000803F49044E80F00315435DF2097D3104F0
:1041A0006408C06030303060C0F9297D49441D1F6B
:1041B00003353645FE08041180E0E0C025FF35FEDA
:1041C000023301C0C1010D10A003680B03033F7F40
:1041D000E3C3C3E37F3F4F3C080303637B7B63037D
:1041E00053050110401404071C175F6D650C1C0873
:1041F000021FF313F31F0245054C05020F030FCFF7
:10420000064EFFD5061F80FF9007193F2EF1280BA1
:1042100022810171801D0F056C04090A0C50068C67
:104220000701012161A120AF057C061030509010DC
:10423000E905DC0590B0D090710C4C06070404072A
:104240000748041706068A2B0406CDAE011F07880F
:1042500006C0801F7FFF91259DCEFCE3061D6804EC
:10426000A6070F5D1C049101297B3E71FC033804F5
:104270002161613E81641D2605CC0D1833262C2852
:10428000282C2633180C07AF054D4007253E39E58D
:10429000CEFF50072D91071AFC9A311731298C0552
:1042A0000100F8FC9F07300CF0F88C060262F292D5
:1042B0001252D2013C0A521292F26202060CF868C3
:1042C00004180F003F20646E64203F000C3F0F3F36
:1042D0000CE03C0CFD0525252505FD090909F9998A
:1042E000092C071F1011071F3FF80425A51406010C
:1042F00001F909897D2005FDF9E189212C0D0000D6
:1043000019191B1B1B19193D3D3D98091C0F010173
:104310009999D9D9D99999BDBDBD9999500A1005D6
:1043200030484833DC11015F0E061D081005E1F12D
:10433000190D012F3931F00C100705051F107717E3
:10434000021C05101F0505380D10074141F111DD54
:10435000D1021C0511F14141900A1C0E3F706040D2
:1043600040435C4641404060708004500FF91D0D91
:1043700015759585859575150D1DF92070064F48A5
:104380004848472030090505F58585850505201C29
:104390000D7F70674351585D5851436770090B1C7E
:1043A0000F01FD1DCD85153575351585CD1DFD21FB
:1043B00009500C7F7062464E5C415C4E4662202084
:1043C0000A8DC5E5750575E5C58D202D2E05159C55
:1043D0001D6E081B3F3F1C2A00782FC1E1BE051C43
:1043E00006FDFD616161000E20050F0C3C3D2013B0
:1043F0003C3C0B25400C0D350D8DCD8D0D0D8D8D5F
:0C4400008D0DFD01E406015801000000D4
:04000005080000ED02
:00000001FF
